:020000040800F2
:1000000000000820C5750008710D0008730D000878
:10001000750D0008770D0008790D0008000000003C
:100020000000000000000000000000007B0D000840
:100030007D0D0008000000007F0D0008810D000804
:100040001576000815760008157600081576000864
:100050001576000815760008157600081576000854
:100060001576000815760008157600081576000844
:100070001576000815760008157600081576000834
:100080001576000815760008890D00081576000819
:100090001576000815760008157600081576000814
:1000A000A10D0008B90D00081576000815760008A6
:1000B000D10D000815760008E10D0008157600083E
:1000C00015760008157600081576000815760008E4
:1000D00015760008157600081576000815760008D4
:1000E00015760008157600081576000815760008C4
:1000F00015760008157600081576000815760008B4
:100100001576000815760008F10D00081576000830
:10011000157600081576000815760008010E00080F
:10012000110E0008210E0008310E00081576000897
:100130001576000815760008157600081576000873
:100140001576000815760008157600081576000863
:1001500015760008410E000815760008510E0008BB
:100160001576000815760008157600081576000843
:1001700015760008157600081576000800000000C6
:100180001576000815760008157600081576000823
:100190001576000815760008157600081576000813
:1001A0001576000815760008157600081576000803
:1001B00015760008157600081576000815760008F3
:1001C0001576000815760008000000001576000876
:1001D00015760008157600081576000815760008D3
:1001E00015760008157600081576000815760008C3
:0801F0001576000815760008E1
:1002000010B5054C237833B9044B13B10448AFF350
:1002100000800123237010BD480100200000000071
:100220001C86000808B5034B1BB103490348AFF314
:10023000008008BD000000004C0100201C86000862
:1002400053B94AB9002908BF00281CBF4FF0FF313D
:100250004FF0FF3000F072B9ADF1080C6DE904CE3B
:1002600000F006F8DDF804E0DDE9022304B0704791
:100270002DE9F047089E04468846002B4BD18A4260
:10028000154667D9B2FA82F24AB1C2F1200701FAE3
:1002900002F320FA07F7954047EA030894404FEA33
:1002A000154E230CB8FBFEF71FFA85FC0EFB1788D2
:1002B00043EA084307FB0CF1994209D9EB1807F10F
:1002C000FF3080F01B81994240F21881023F2B449D
:1002D0005B1AA4B2B3FBFEF00EFB103344EA0344F6
:1002E00000FB0CFCA44509D92C1900F1FF3380F068
:1002F0000781A44540F2048102382C4440EA0740BB
:10030000A4EB0C0400271EB1D4400023C6E900432F
:100310003946BDE8F0878B4209D9002E00F0EB800A
:100320000027C6E9000138463946BDE8F087B3FA30
:1003300083F7002F47D18B4202D3824200F2FA802A
:10034000841A61EB030301209846002EE0D0C6E931
:100350000048DDE702B9FFDEB2FA82F2002A40F07F
:100360008F80491B4FEA154E1FFA85F80127B1FB14
:10037000FEFC230C0EFB1C1143EA014308FB0CF1AD
:10038000994207D9EB180CF1FF3002D2994200F2E2
:10039000CD808446591AA3B2B1FBFEF00EFB1014B7
:1003A00043EA044408FB00F8A04507D92C1900F1E2
:1003B000FF3302D2A04500F2B6801846A4EB080431
:1003C00040EA0C409FE7C7F1200CBB4022FA0CFE2C
:1003D0004EEA030E01FA07F420FA0CF521FA0CF3A9
:1003E0004FEA1E482543B3FBF8F92C0C08FB1933E0
:1003F0001FFA8EFA44EA034309FB0AF49C4202FA0C
:1004000007F200FA07F10BD91EEB030309F1FF30E5
:1004100080F087809C4240F28480A9F102097344F5
:100420001B1BADB2B3FBF8F008FB103345EA0344E5
:1004300000FB0AFAA24508D91EEB040400F1FF33C1
:100440006BD2A24569D90238744440EA0940A0FB46
:100450000289A4EB0A044C45C2464B4654D351D002
:10046000002E69D0B1EB0A0564EB030404FA0CFC1E
:10047000FD40FC404CEA0505C6E90054002747E76B
:10048000C2F1200320FA03F7954001FA02F021FAA5
:1004900003F34FEA154E3843010CB3FBFEF71FFA86
:1004A00085F80EFB173341EA034107FB08F38B4243
:1004B00004FA02F407D9691807F1FF3C2FD28B42E6
:1004C0002DD9023F2944CB1A81B2B3FBFEF00EFBBB
:1004D000103341EA034100FB08F38B4207D9691846
:1004E00000F1FF3C17D28B4215D902382944C91AB2
:1004F00040EA07473BE73746304609E70746E7E665
:100500001846FBE64145ABD2B8EB020A69EB0E0296
:1005100001381346A4E76046E9E7184695E76746C1
:10052000D1E781467CE702382C4447E7ACF1020C66
:100530002B442FE7384608E73746E9E6704700BF07
:1005400001F0FF01102A2BDB10F0070F08D010F884
:10055000013B013A8B422DD010F0070F42B3F6D188
:10056000F0B441EA012141EA014122F007047FF0A1
:1005700000070023F0E80256083C85EA010586EAF8
:10058000010685FA47F5A3FA87F586FA47F6A5FA34
:1005900087F68EB9EED1F0BC01F0FF0102F0070240
:1005A00032B110F8013B013A83EA010313B1F8D1EB
:1005B0000020704701387047002D06BF35460338CC
:1005C000073815F0010F07D1013015F4807F02BF05
:1005D000013015F4C03F0130F0BC0138704700BF56
:1005E00000B585B00023009301930293039329483B
:1005F000294A02604FF48032426083600122026126
:10060000836180F820304FF08051C1624FF030613B
:100610008162C3600423C36180F83020426101F02D
:10062000EBF840BB032300930123019302230293C1
:100630006946184801F0B6FA00BB0A23009302236A
:1006400001936946134801F0ADFAD0B90D23009328
:100650000323019369460F4801F0A4FAA0B90C23C3
:1006600000930423019369460A4801F09BFA70B98C
:1006700005B05DF804FB00F01DFAD3E700F01AFAAC
:10068000DBE700F017FAE1E700F014FAE7E700F023
:1006900011FAEDE7FC9700200020014000B585B07D
:1006A000002300930193029303932948294A02608F
:1006B0004FF480324260836001220261836180F8DE
:1006C00020304FF08051C1624FF050618162C360B1
:1006D0000423C36180F83020426101F08DF840BBF3
:1006E00009230093012301930223029369461848CA
:1006F00001F058FA00BB0F230093022301936946CF
:10070000134801F04FFAD0B9082300930323019353
:1007100069460F4801F046FAA0B907230093042365
:10072000019369460A4801F03DFA70B905B05DF8D9
:1007300004FB00F0BFF9D3E700F0BCF9DBE700F001
:10074000B9F9E1E700F0B6F9E7E700F0B3F9EDE752
:10075000449800200022014030B58BB004460023AD
:100760000593069307930893099303684F4A9342AE
:1007700004D04F4A934254D00BB030BD4D4B5A6C0D
:1007800042F480725A645A6C02F480720092009AA9
:100790001A6B42F004021A631A6B02F0040201920F
:1007A000019A1A6B42F001021A631B6B03F00103FA
:1007B0000293029B0D2305930325069505A93E4848
:1007C00001F0AEFD0823059306950025079505A9C0
:1007D0003A4801F0A5FD3A483A4B03604560856010
:1007E000C5604FF4806303614FF4006343614FF4CD
:1007F000005383614FF48073C3610562456201F069
:10080000A3FB58B92E4BA3639C6300221146122010
:1008100001F0CAFA122001F0F9FAADE700F04AF946
:10082000F0E7244B5A6C42F480625A645A6C02F42A
:1008300080620392039A1A6B42F020021A631B6BC8
:1008400003F020030493049B4FF4C5630593032333
:10085000069305A91C4801F063FD1C481C4B03606E
:100860004FF08063436000238360C3604FF4806275
:1008700002614FF4006242614FF4005282614FF412
:100880008072C2610362436201F05EFB58B90F4B94
:10089000A3639C6300221146122001F085FA122006
:1008A00001F0B4FA68E700F005F9F0E70020014034
:1008B00000220140003802400008024000000240CF
:1008C0008CA0002010640240001402409C9700207D
:1008D0002864024000B583B0164B1A6B42F48002C4
:1008E0001A631B6B03F480030193019B00221146E2
:1008F000382001F059FA382001F088FA0022114618
:10090000392001F051FA392001F080FA0022114615
:100910003A2001F049FA3A2001F078FA0022114613
:10092000452001F041FA452001F070FA03B05DF86E
:1009300004FB00BF003802402DE9F0438DB00024D5
:100940000794089409940A940B944D4B1A6B42F047
:1009500004021A631A6B02F004020092009A1A6BE6
:1009600042F020021A631A6B02F020020192019AEF
:100970001A6B42F001021A631A6B02F00102029232
:10098000029A1A6B42F010021A631A6B02F01002FC
:100990000392039A1A6B42F002021A631A6B02F076
:1009A00002020492049A1A6B42F008021A631A6B4C
:1009B00002F008020592059A1A6B42F040021A638F
:1009C0001B6B03F040030693069BDFF8C0902246A2
:1009D0006021484601F09FFDDFF8B48022464FF4C5
:1009E0009941404601F097FD264E22464FF4404182
:1009F000304601F090FD244F22460C21384601F08C
:100A00008AFD602307930125089509940A9407A994
:100A1000484601F085FC4FF49943079308950994E3
:100A20000A9407A9404601F07BFC4FF4404307932A
:100A3000089509940A9407A9304601F071FC4FF01B
:100A40000408CDF81C800895022309930A9407A98D
:100A5000384601F065FC08230793089509950A9428
:100A600007A9384601F05CFCCDF81C800894099574
:100A700007A9304601F054FC0DB0BDE8F08300BF7B
:100A800000380240000C0240001802400000024002
:100A90000004024008B506F0ABFA08BD08B50268CC
:100AA000034B9A4200D008BD06F01CF9FBE700BFDB
:100AB0000014004072B6FEE710B5B8B03422002131
:100AC0002BA806F00EFE002426942794289429943F
:100AD0002A949022214602A806F003FE01F02AFD86
:100AE000264B1A6C42F080521A641B6C03F0805340
:100AF0000093009B224B1A6842F440421A601B6824
:100B000003F440430193019B02232B9301222E9275
:100B100010222F923193329408223392D8223492A9
:100B2000359336932BA801F04BFDF0B901F00AFD87
:100B3000E8B90F23269302232793002328934FF429
:100B4000A05329934FF480532A93072126A801F03C
:100B5000ADFF70B94FF4006302930023189302A80D
:100B600002F07EF838B938B010BDFFF7A3FFFFF7E9
:100B7000A1FFFFF79FFFFFF79DFF00BF0038024076
:100B80000070004038B500F06BFDFFF795FFFFF7F0
:100B9000D3FEFFF79FFE00F077F800F01FFC00F097
:100BA00001FA00F0C5F9FFF71BFDFFF777FD00F034
:100BB00067FA00F08FFA00F0B7FA00F0E1FA00F0FF
:100BC00025FA00F093FC06F051FB294B1A681368D4
:100BD00043F0200313603C21264803F047FE264CD7
:100BE0000021204603F094FD0021204603F0B2FED0
:100BF0000421204603F08CFD0421204603F0AAFEC8
:100C000006F0BAFC06F0D8F906F0A8FBC82000F000
:100C100045FD4FF4FB7005F0C5F9C82000F03EFD1E
:100C200005F0ECF94FF4FB71002005F047FD05F0ED
:100C3000C5FD124803F0A8F900F02AFD044600257E
:100C40004FF4FB71002005F039FD05F0A9FE0C4BB7
:100C5000188000F01DFD001BB0F57A7FF0D901353A
:100C6000ADB2084B1D8000F013FD0446E8E700BF5D
:100C700070A4002050A1002080A2002064A30020C6
:100C80000CA700202003002008B51048104B03607B
:100C90004FF482734360002383604FF4E062C260CC
:100CA000036143614FF400728261C3610362436276
:100CB00083620722C26203630823436302F064FC79
:100CC00000B908BDFFF7F6FEFBE700BFECA000206F
:100CD000003C004000B589B00023039304930593C2
:100CE000069307930268144B9A4202D009B05DF84C
:100CF00004FB03F5FE331A6C42F400421A641A6CCA
:100D000002F400420192019A1A6B42F004021A6343
:100D10001B6B03F004030293029B4FF4E053039315
:100D200002230493032306930623079303A903488E
:100D300001F0F6FADAE700BF003C0040000802408C
:100D400082B00A4B1A6C42F080521A641A6C02F09C
:100D500080520092009A5A6C42F480425A645B6C52
:100D600003F480430193019B02B0704700380240B6
:100D7000FEE7FEE7FEE7FEE7FEE7704770477047D5
:100D800008B500F079FC08BD08B5034800F028FE5E
:100D9000024800F025FE08BDFC9700204498002082
:100DA00008B5034803F03DF9024803F03AF908BDDD
:100DB00080A20020CCA2002008B5034803F031F93E
:100DC000024803F02EF908BD80A200209CA100205B
:100DD00008B5024803F025F908BD00BF18A300209C
:100DE00008B5024803F01DF908BD00BF50A100205E
:100DF00008B5024803F015F908BD00BFE8A10020BE
:100E000008B5024803F00DF908BD00BF64A3002037
:100E100008B5024801F096F908BD00BF8CA000207B
:100E200008B5024801F08EF908BD00BF9C9700206C
:100E300008B5024801F086F908BD00BFB0A3002044
:100E400008B5024801F07EF908BD00BF10A40020DB
:100E500008B505F057FD8021034801F062FB034807
:100E600003F0DEFE08BD00BF0004024070A40020B5
:100E70000120704708B506F0EDFB162303604FF024
:100E8000FF3008BD08B54FF0FF31FFF7F3FFFEE775
:100E900070B50D461646002404E0AFF300802870BC
:100EA00001340135B442F8DB304670BD70B51646EA
:100EB000002405E04D1C087806F044FB0134294667
:100EC000B442F7DB304670BD08B503460B4A1268E2
:100ED00042B10A4A106803446A46934206D8074A58
:100EE000136008BD054A06491160F2E706F0B2FB3F
:100EF0000C2303604FF0FF30F3E700BF64010020D4
:100F000030A700204FF0FF3070474FF400534B6084
:100F1000002070470120704700207047034AD2F834
:100F2000883043F47003C2F88830704700ED00E069
:100F300000B589B0002304930593069307930193AA
:100F40000293039316484FF080420260D72242601A
:100F5000836040F2E732C26003618023836103F063
:100F6000B3F9A0B908A94FF4805341F8103D0C48DB
:100F700003F042FB70B9202301930023039301A9DE
:100F8000074803F06BFD40B909B05DF804FBFFF7BB
:100F900091FDE7E7FFF78EFDEDE7FFF78BFDF3E748
:100FA00018A3002000B58DB02022002104A806F06F
:100FB00098FB00230093019302931248124A0260A7
:100FC000436083604FF6FF72C26003618361032355
:100FD000039301230593099303A903F0D3F950B9AF
:100FE0000023009302936946064803F037FD28B9B1
:100FF0000DB05DF804FBFFF75DFDF1E7FFF75AFD6B
:10100000F6E700BF50A100200008004000B589B0FD
:10101000002304930593069307930193029303938C
:101020001548164A026035224260836040F2E7327A
:10103000C26003618023836103F046F998B908A96F
:101040004FF4805341F8103D0B4803F0D5FA68B9CE
:1010500000230193039301A9074803F0FFFC40B963
:1010600009B05DF804FBFFF725FDE8E7FFF722FD77
:10107000EEE7FFF71FFDF3E7E8A10020000C0040BA
:1010800000B585B000230193029303930F48104AE3
:1010900002606B224260836040F2E733C3608023CA
:1010A000836103F011F958B92023019300230393BE
:1010B00001A9064803F0D2FC28B905B05DF804FB8D
:1010C000FFF7F8FCF0E7FFF7F5FCF6E734A20020A5
:1010D0000010004000B585B00023019302930393F4
:1010E0000F48104A02606B224260836040F2E7338F
:1010F000C3608023836103F0E7F850B900230193B4
:10110000039301A9064803F0A9FC28B905B05DF8CE
:1011100004FBFFF7CFFCF1E7FFF7CCFCF6E700BFDD
:1011200064A300200014004000B585B000230093A4
:101130000193029303931048104A026041F2175240
:101140004260836041F28832C2600361836103F0D0
:10115000BBF858B904A94FF4805341F8103D064834
:1011600003F04AFA28B905B05DF804FBFFF7A2FCCA
:10117000F0E7FFF79FFCF6E7CCA20020004001401B
:1011800008B50948094B03600023436083604FF6AC
:10119000FF72C26003618023836103F095F800B998
:1011A00008BDFFF787FCFBE79CA10020004401403D
:1011B00000B589B003684F4A934214D0B3F1804F11
:1011C0002CD04D4A93423DD04C4A93424DD04C4A8C
:1011D000934255D04B4A934265D04B4A934275D0C7
:1011E00009B05DF804FB494B5A6C42F001025A64A5
:1011F0005B6C03F001030193019B00221146182050
:1012000000F0D2FD182000F001FE00221146192046
:1012100000F0CAFD192000F0F9FDE1E703F50E33F7
:101220001A6C42F001021A641B6C03F00103029372
:10123000029B002211461C2000F0B6FD1C2000F08D
:10124000E5FDCDE7314B1A6C42F008021A641B6CC5
:1012500003F008030393039B00221146322000F0A1
:10126000A3FD322000F0D2FDBAE7284B1A6C42F001
:1012700010021A641B6C03F010030493049BAFE785
:10128000224B1A6C42F020021A641B6C03F02003FC
:101290000593059B00221146372000F085FD37207D
:1012A00000F0B4FD9CE7194B5A6C42F480325A644A
:1012B0005B6C03F480330693069B002211461820D2
:1012C00000F072FD182000F0A1FD89E70F4B5A6C69
:1012D00042F400325A645B6C03F400330793079BBB
:1012E00000221146192000F05FFD192000F08EFD4C
:1012F00076E700BF00000140000C004000100040F5
:101300000014004000400140004401400038024009
:1013100000B589B0002303930493059306930793C4
:101320000268174B9A4202D009B05DF804FB03F53E
:101330000C331A6C42F004021A641A6C02F00402B4
:101340000192019A1A6B42F008021A631B6B03F0B8
:1013500008030293029B4FF4405303930223049328
:1013600001220592079303A9064800F0D9FF002245
:1013700011461E2000F018FD1E2000F047FDD3E7A7
:1013800000080040000C024000B587B00023019324
:10139000029303930493059302680E4B9A4202D082
:1013A00007B05DF804FB03F59C331A6B42F01002A2
:1013B0001A631B6B03F010030093009B4FF47063E0
:1013C0000193022302930123059301A9024800F02F
:1013D000A7FFE5E7000001400010024010B59AB0F9
:1013E0000024169417941894199413941494159433
:1013F0000C940D940E940F941094119412942C222A
:10140000214601A806F06DF93648374B0360446069
:101410002023836041F21853C36004614461802338
:10142000836102F051FF002847D11AA94FF480537D
:1014300041F8103D2B4803F0DFF8002840D129483F
:1014400002F071FF00283ED10023139314931593EB
:1014500013A9244803F002FB002837D160230C9322
:1014600000220D920E920F921092119212920CA9DC
:101470001C4803F017F860BB04220CA9194803F0BC
:1014800011F848BB0023019302930393572204925F
:1014900005934FF400520692079308934FF00072A1
:1014A00009920A930B9301A90E4803F027FBB0B9E8
:1014B0000C48FFF769FF1AB010BDFFF7FBFAB4E75D
:1014C000FFF7F8FABBE7FFF7F5FABDE7FFF7F2FA27
:1014D000C4E7FFF7EFFACFE7FFF7ECFAD2E7FFF741
:1014E000E9FAE5E780A200200000014008B50B48BA
:1014F0000B4B03604FF4E133436000238360C36010
:1015000003610C2242618361C3610362436203F0A1
:1015100079FF00B908BDFFF7CDFAFBE770A4002002
:101520000014014010B588B0002303930493059381
:10153000069307930268324B9A4201D008B010BD5F
:10154000044603F592335A6C42F020025A645A6CF6
:1015500002F020020192019A1A6B42F040021A63D3
:101560001B6B03F040030293029B4FF484430393ED
:1015700002230493032306930823079303A9214816
:1015800000F0CEFE2048214B03604FF02063436003
:1015900000238360C3604FF4806202614361836112
:1015A000C3610362436200F0CFFC18BB164B236794
:1015B0009C631748174B03604FF020634360402340
:1015C00083600023C3604FF48062026143618361E2
:1015D000C3610362436200F0B7FC70B90C4BE36671
:1015E0009C6300221146472000F0DEFB472000F0FC
:1015F0000DFCA3E7FFF75EFAD8E7FFF75BFAEDE72C
:101600000014014000180240B0A3002040640240D2
:1016100010A40020A064024010B504460E4B1878B8
:101620004FF47A73B3FBF0F30C4A1068B0FBF3F09D
:1016300000F0FAFB68B90F2C01D901200AE0002262
:1016400021464FF0FF3000F0AFFB034B5C60002001
:1016500000E0012010BD00BF0400002000000020B9
:1016600008B5032000F08EFB0020FFF7D5FFFFF741
:1016700067FB002008BD0000034A1168034B1B787C
:101680000B441360704700BFF4A400200400002046
:10169000014B1868704700BFF4A4002038B5044619
:1016A000FFF7F6FF0546B4F1FF3F02D0044B1B786D
:1016B0001C44FFF7EDFF401BA042FAD338BD00BF2A
:1016C000040000204A4B5A6822F440325A605A689B
:1016D00041680A435A600268536823F48073536078
:1016E00002685368016943EA012353600268536842
:1016F00023F0407353600268536881680B43536062
:101700000268936823F40063936002689368C16879
:101710000B439360826A374B9A424BD002689368BE
:1017200023F07063936002689368816A0B4393604F
:101730000268936823F04053936002689368C16A1B
:101740000B4393600268936823F00203936002687E
:101750009368816943EA4103936090F82030002B3D
:1017600033D10268536823F4006353600268D36A7C
:1017700023F47003D3620168CB6AC269013A43EA79
:101780000253CB620268936823F40073936002688B
:10179000936890F8301043EA41239360026893689D
:1017A00023F48063936002689368416943EA81236C
:1017B000936070470268936823F0706393600268D7
:1017C000936823F040539360BCE70268536843F486
:1017D000006353600268536823F4604353600168F8
:1017E0004B68426A013A43EA42334B60BEE700BFAE
:1017F000002301400100000F28B310B50446036C1C
:1018000043B1236C13F0100F0BD00120002384F898
:101810003C3010BDFEF7A0FF0023636484F83C3029
:10182000EFE7226C094B134043F002032364204688
:10183000FFF748FF00206064236C23F0030343F0AC
:1018400001032364E2E70120704700BFFDEEFFFFC4
:1018500030B583B00023019390F83C30012B00F0A9
:101860009C80012380F83C300468A36813F0010FCA
:1018700013D1A36843F00103A3604C4B1C684C4B8D
:10188000A3FB0434A40C04EB4404019402E0019C87
:10189000013C0194019C002CF9D103689C6814F070
:1018A000010F6FD0056C434C2C4044F480740464E9
:1018B0005B6813F4806F05D0036C23F4405343F44A
:1018C00080530364036C13F4805F36D0436C23F0C1
:1018D0000603436413460446002280F83C20826BD2
:1018E0003548D063A26B35481064A26B3448D0648D
:1018F00022686FF0220010602568686840F0806000
:1019000068602568A86840F48070A86020680A466E
:1019100000F14C01A06B00F07DFB2A4B5B6813F0DB
:101920001F0F0DD123689A6812F0405F37D19A6873
:1019300042F080429A6000202DE000234364C9E712
:101940002368214A93420AD01E4B5B6813F0100FA4
:1019500027D123681D4A93420AD000201BE09A68D1
:1019600012F0405FF0D19A6842F080429A60EBE753
:101970009A6812F0405F16D19A6842F080429A60ED
:10198000002008E0036C43F010030364436C43F051
:1019900001034364002003B030BD0220FBE70020B8
:1019A000F9E70020F7E70020F5E700BF000000207E
:1019B00083DE1B43FEF8FFFF331B0008D31900082A
:1019C0001D1B0008002301400020014000220140AF
:1019D000704708B5806BFFF7FBFF08BD7047704785
:1019E00070B5044603681E685D68C6F34001C5F320
:1019F000401211422CD0026C12F0100F03D1026C75
:101A000042F4007202649A6812F0405F19D1A26930
:101A1000BAB9DA6A12F4700F03D09A6812F4806FC0
:101A20000FD15A6822F020025A60236C23F480738D
:101A30002364236C13F4805F03D1236C43F0010310
:101A400023642046FFF726F823686FF012021A601D
:101A5000C6F38003C5F3C012134235D0236C13F0D4
:101A6000100F03D1236C43F40053236423689A6856
:101A700012F4401F21D19A6B12F4401F03D09A68D0
:101A800012F4806F19D15A6812F4806F15D19A68D8
:101A900012F0405F11D1A2697AB95A6822F080022F
:101AA0005A60236C23F480532364236C13F4807FE7
:101AB00003D1236C43F001032364204600F060F956
:101AC00023686FF00C021A60C5F380131E4204D025
:101AD00023681B6813F0010F06D1C6F34016C5F347
:101AE00080652E420CD170BD236C43F48033236497
:101AF0002046FFF773FF23686FF001021A60ECE7DE
:101B0000636C43F00203636423686FF020051D607B
:101B10002046FFF764FF23681D60E4E708B5806B8B
:101B200040230364436C43F004034364FFF757FF0F
:101B300008BD08B5836B1A6C12F0500F26D11A6CD1
:101B400042F400721A641A68916811F0405F19D16A
:101B50009969B9B9D16A11F4700F03D0916811F481
:101B6000806F0FD1516821F0200151601A6C22F46E
:101B700080721A641A6C12F4805F03D11A6C42F0FE
:101B800001021A641846FEF785FF08BD1A6C12F0B0
:101B9000100F03D19B6BDB6C9847F6E71846FFF7F5
:101BA0001EFFF2E730B482B00023019390F83C307E
:101BB000012B00F0D980012380F83C300B68B3F191
:101BC000004F18BF092B22D90568EA689BB203EBC6
:101BD00043031E3B072404FA03F322EA0303EB60EA
:101BE0000B68624A93420BD00568EA688C689BB226
:101BF00003EB43031E3B04FA03F31343EB601BE0C8
:101C00000268D3688C6843EA0463D36014E0056813
:101C10002A699BB203EB4303072404FA03F322EA85
:101C200003032B6105682A698C680B8803EB430367
:101C300004FA03F313432B614B68062B28D805687D
:101C40006A6B03EB8303053B1F2404FA03F322EAC8
:101C500003036B6305686A6B4B6803EB8303053B07
:101C60000C8804FA03F313436B630268404B9A42F7
:101C70003ED002683E4B9A4244D002683C4B9A42A6
:101C80004DD0002380F83C30184602B030BC70477D
:101C90000C2B16D805682A6B03EB8303233B1F2408
:101CA00004FA03F322EA03032B6305682A6B4B68EB
:101CB00003EB8303233B0C8804FA03F313432B63E6
:101CC000D3E70568EA6A03EB8303413B1F2404FA68
:101CD00003F322EA0303EB620568EA6A4B6803EB4D
:101CE0008303413B0C8804FA03F31343EB62BCE724
:101CF0000B68B3F1004FBCD11E4A536823F4400374
:101D00005360B6E70B68122BB7D11A4B5A6822F40E
:101D100000025A605A6842F480025A60ADE70B68CC
:101D2000124A112B18BF9342ABD1124B5A6822F4BE
:101D300080025A605A6842F400025A600A680B4BEB
:101D40009A429ED10C4B1B680C4AA2FB03239B0CAE
:101D500003EB83035A00019202E0019B013B0193D4
:101D6000019B002BF9D18CE702208EE712000010B6
:101D700000200140002301400000002083DE1B43BF
:101D8000704700000649CB6823F4E0631B041B0C7A
:101D9000000200F4E0600343024A1A43CA6070473D
:101DA00000ED00E00000FA0530B4154BDB68C3F32A
:101DB0000223C3F10704042C28BF04241D1D062D93
:101DC00014D9033B4FF0FF3505FA04F421EA04016E
:101DD000994005FA03F322EA03031943002807DBBD
:101DE0000901C9B2074B195430BC70470023E9E719
:101DF00000F00F000901C9B2034B1954F4E700BF0A
:101E000000ED00E000E400E014ED00E0002807DB56
:101E100000F01F02400901239340024A42F820309B
:101E2000704700BF00E100E00138B0F1807F0AD2C6
:101E3000064B5860064AF02182F823100020986073
:101E400007221A6070470120704700BF10E000E0D1
:101E500000ED00E030B405682C6824F480242C6088
:101E6000046863608368402B05D003689960036849
:101E7000DA6030BC704703689A600368D960F8E79D
:101E80000268D3B2103B0949A1FB03131B0908499F
:101E9000C95CC165032B04D8064B13408365806D74
:101EA0007047044B134004338365F8E7ABAAAAAA32
:101EB0004C86000800FCFFFF836A826992B9012BFF
:101EC0000AD01BB1022B01D000207047C36A13F067
:101ED000807F2CD100207047C36AB3F1C07F28D027
:101EE00000207047B2F5005F05D0022B29D9032BE3
:101EF00015D000207047032B03D8DFE803F01C0443
:101F00001C0A00207047C36A13F0807F15D100209F
:101F10007047C36AB3F1C07F11D000207047C36A15
:101F200013F0807F01D0012070470020704701200E
:101F30007047012070470120704701207047012041
:101F4000704701207047000070B50446FFF7A0FB02
:101F5000002C5BD00546022384F83530002384F83A
:101F600034302268136823F00103136023681A6871
:101F700012F0010F0AD0FFF78BFB401B0528F5D9A3
:101F800020236365032084F8350070BD1A6820485B
:101F900010406168A2680A43E1680A4321690A4364
:101FA00061690A43A1690A43E1690A43216A0A4354
:101FB0000243616A04291ED01A602668756925F0FB
:101FC0000705636A1D43042B07D1A36A1D43E36A17
:101FD0001BB12046FFF770FF90B975612046FFF7EF
:101FE0004FFFE26D3F239340836000206065012333
:101FF00084F83530C9E7E16A206B01430A43DBE727
:1020000040236365012084F83500BEE70120BCE76A
:102010003F8010E038B5856D90F83440012C31D008
:10202000012480F8344090F83540E4B2012C04D00B
:10203000002380F83430022038BD0446022084F8A2
:102040003500002060652046FFF704FFE26D3F2366
:102050009340AB602268136843F016031360226854
:10206000536943F080035361236C23B122681368E2
:1020700043F0080313602268136843F00103136000
:102080000020D9E70220D7E770B50446866DFFF738
:10209000FFFA94F83530DBB2022B06D0802363655B
:1020A000002384F83430012070BD0546226813688F
:1020B00023F0160313602268536923F080035361F1
:1020C000236CE3B12268136823F0080313602268CD
:1020D000136823F00103136023681B6813F0010FDA
:1020E00011D0FFF7D5FA401B0528F5D920236365E9
:1020F000032084F83500002384F83430D4E7A36C3F
:10210000002BDFD1E3E7E26D3F239340B36001236F
:1021100084F83530002084F83400C5E790F8353075
:10212000DBB2022B03D080234365012070470523D7
:1021300080F835300268136823F001031360002033
:1021400070470000F0B583B0044600230193724B42
:102150001D68724BA3FB0535AD0A876D3E68C26DE5
:1021600008239340334210D003681A6812F0040F1A
:102170000BD01A6822F004021A60C26D0823934043
:10218000BB60436D43F001034365E26D012393405F
:10219000334209D02268526912F0800F04D0BB602C
:1021A000636D43F002036365E26D042393403342A1
:1021B00009D02268126812F0020F04D0BB60636D70
:1021C00043F004036365E26D10239340334224D04F
:1021D0002268126812F0080F1FD0BB6023681A68CB
:1021E00012F4802F0DD01B6813F4002F04D1236C40
:1021F0009BB12046984710E0A36C73B120469847E6
:102200000BE01A6812F4807F03D11A6822F00802EA
:102210001A60236C0BB120469847E26D202393404F
:10222000334255D02268126812F0100F50D0BB60B4
:1022300094F83530DBB2052B0ED023681A6812F4FF
:10224000802F33D01B6813F4002F2AD1636C002B2E
:102250003ED0204698473BE02268136823F01603DF
:1022600013602268536923F080035361236CA3B188
:102270002268136823F008031360E26D3F23934044
:10228000BB60012384F83530002384F83430236D9B
:10229000002B3FD0204698473CE0A36C002BE7D1B1
:1022A000EBE7E36BA3B12046984711E01A6812F4FC
:1022B000807F09D11A6822F010021A60012384F885
:1022C0003530002384F83430E36B0BB12046984757
:1022D000636DFBB1636D13F0010F17D0052384F814
:1022E00035302268136823F001031360019B01332A
:1022F0000193AB4204D823681B6813F0010FF5D19A
:10230000012384F83530002384F83430E36C0BB1BA
:102310002046984703B0F0BD00000020B5814E1B59
:1023200000230F2B00F2E780F0B482B05EE08668F5
:102330005F000324BC4026EA0406CC68BC4034435A
:102340008460466826EA02064C68C4F300129A408C
:102350003243426057E0DC08083450F8247003F040
:10236000070296000F22B24027EA02070A69B2402C
:102370003A4340F824205AE0092200E00022B2400B
:102380003A4302345C4E46F824205C4A9468EA439F
:1023900002EA04064F6817F4801F01D045EA0406DC
:1023A000564CA660E46802EA04064F6817F4001F62
:1023B00001D045EA0406514CE660646802EA04066E
:1023C0004F6817F4003F01D045EA04064B4C6660A5
:1023D000246822404E6816F4803F01D045EA04028A
:1023E000464C226001330F2B00F2828001229A407A
:1023F0000C6804EA0205AA42F4D14C6804F0030414
:10240000013C012C93D94A6802F00302032A09D047
:10241000C4685E000322B24024EA02048A68B24023
:102420002243C2604A6802F00302022A93D0046881
:102430005E000322B24024EA02044A6802F003026A
:10244000B240224302604A6812F4403FCAD02C4A8C
:10245000546C44F480445464526C02F480420192FF
:10246000019A9C08A61C244A52F8267003F0030225
:1024700096000F22B24027EA0207224A90423FF418
:102480007DAF02F58062904222D002F580629042D8
:1024900020D002F5806290421ED002F58062904208
:1024A0001CD002F5806290421AD002F58062904200
:1024B00018D002F58062904216D002F580629042F8
:1024C00014D002F5806290423FF456AF0A2256E7DC
:1024D000012254E7022252E7032250E704224EE78A
:1024E00005224CE706224AE7072248E7082246E78A
:1024F00002B0F0BC7047704700380140003C01401A
:1025000000380240000002400369194201D1002056
:1025100070470120704712B90904816170478161D9
:102520007047436901EA030221EA030141EA0241DB
:1025300081617047024A136843F4807313607047E7
:102540000070004010B582B01B4B1A6C42F08052F4
:102550001A641B6C03F080530193019B174A1368A4
:1025600043F480331360FFF793F80446134B5B6822
:1025700013F4803F08D1FFF78BF8001BB0F57A7F8A
:10258000F4D9032002B010BD0C4A136843F40033A1
:102590001360FFF77DF80446084B5B6813F4003FB7
:1025A00007D1FFF775F8001BB0F57A7FF4D9032047
:1025B000E8E70020E6E700BF003802400070004076
:1025C000002800F0128270B582B00446036813F050
:1025D000010F29D0A24B9B6803F00C03042B1AD0E7
:1025E0009F4B9B6803F00C03082B0FD06368B3F577
:1025F000803F40D0002B54D1994B1A6822F480328E
:102600001A601A6822F480221A6039E0944B5B68E1
:1026100013F4800FEAD0924B1B6813F4003F03D0F1
:102620006368002B00F0E381236813F0020F75D07C
:102630008B4B9B6813F00C0F5ED0894B9B6803F0AB
:102640000C03082B53D0E368002B00F08A80844AE7
:10265000136843F001031360FFF71AF80546804B37
:102660001B6813F0020F73D1FFF712F8401B02280A
:10267000F5D90320BEE17A4A136843F4803313602E
:1026800063682BB3FFF704F80546754B1B6813F41A
:10269000003FC9D1FEF7FCFF401B6428F5D9032099
:1026A000A8E1B3F5A02F09D06D4B1A6822F480324F
:1026B0001A601A6822F480221A60E1E7684B1A68EF
:1026C00042F480221A601A6842F480321A60D7E716
:1026D000FEF7DEFF0546624B1B6813F4003FA3D0F4
:1026E000FEF7D6FF401B6428F5D9032082E15C4B3E
:1026F0005B6813F4800FA6D1594B1B6813F0020FCF
:1027000004D0E368012B01D0012073E1544A13681F
:1027100023F0F803216943EAC1031360236813F02F
:10272000080F46D0636983B34D4A536F43F00103EA
:102730005367FEF7ADFF0546494B5B6F13F0020F81
:1027400037D1FEF7A5FF401B0228F5D9032051E140
:10275000434A136823F0F803216943EAC103136075
:10276000DCE73F4A136823F001031360FEF790FF94
:1027700005463B4B1B6813F0020FCFD0FEF788FFD6
:10278000401B0228F5D9032034E1354A536F23F06A
:1027900001035367FEF77CFF0546314B5B6F13F077
:1027A000020F06D0FEF774FF401B0228F5D9032064
:1027B00020E1236813F0040F7ED0294B1B6C13F02B
:1027C000805F1ED1264B1A6C42F080521A641B6C3B
:1027D00003F080530193019B0125224B1B6813F4E6
:1027E000807F10D0A368012B21D0002B3CD11C4B43
:1027F0001A6F22F001021A671A6F22F004021A6798
:102800001AE00025E9E7174A136843F48073136060
:10281000FEF73EFF0646134B1B6813F4807FE1D1A1
:10282000FEF736FF801B6428F5D90320E2E00C4A4E
:10283000136F43F001031367A3685BB3FEF728FF30
:102840000646074B1B6F13F0020F34D1FEF720FF33
:10285000801B41F288339842F3D90320CAE000BFBD
:102860000038024000700040052B09D0644B1A6FFD
:1028700022F001021A671A6F22F004021A67DBE7DE
:102880005F4B1A6F42F004021A671A6F42F001029E
:102890001A67D1E7FEF7FCFE0646594B1B6F13F093
:1028A000020F08D0FEF7F4FE801B41F288339842F5
:1028B000F3D903209EE0FDB9A369002B00F09980B5
:1028C0004F4A926802F00C02082A59D0022B19D004
:1028D0004B4A136823F080731360FEF7D9FE044659
:1028E000474B1B6813F0007F48D0FEF7D1FE001B5A
:1028F0000228F5D903207DE0414A136C23F0805370
:102900001364D9E73E4A136823F080731360FEF71F
:10291000BFFE05463A4B1B6813F0007F06D0FEF75A
:10292000B7FE401B0228F5D9032063E0E369226A61
:102930001343626A43EA8213A26A5208013A43EAE5
:102940000243E26A43EA0263226B43EA02732C4ABF
:102950005360136843F080731360FEF799FE0446DA
:10296000274B1B6813F0007F06D1FEF791FE001B7A
:102970000228F5D903203DE000203BE0002039E0AB
:102980001F4A5268012B37D002F48003E1698B4261
:1029900001D001202EE002F03F03216A8B4201D0DA
:1029A000012027E0616A47F6C0731340B3EB811F33
:1029B00001D001201EE002F44031A36A5B08013B14
:1029C000B1EB034F01D0012014E002F07063E16A23
:1029D000B3EB016F01D001200CE002F0E042236B69
:1029E000B2EB037F0AD0012004E0012070470120F0
:1029F00000E0002002B070BD0120FBE70020F9E7F5
:102A000000380240264B9B6803F00C03042B44D093
:102A1000082B01D0234870472DE9F04B204B5A6812
:102A200002F03F025B6813F4800F13D01C4B59680F
:102A3000C1F3881100231C48A1FB0001FDF700FC35
:102A4000174B5B68C3F3014301335B00B0FBF3F04A
:102A5000BDE8F08B124B5B68C3F388131E4600275A
:102A60005C010025E41A65EB0705A90141EA9461C0
:102A7000A001001B61EB0501CB0043EA5073C400C9
:102A8000A01943EB07018B0243EA905384022046CE
:102A900019460023FDF7D4FBD2E70348704700BF77
:102AA000003802400024F40040787D01002800F046
:102AB000A38070B50446524B1B6803F00F038B4292
:102AC0000CD24F4A136823F00F030B4313601368B3
:102AD00003F00F038B4201D0012070BD236813F077
:102AE000020F17D013F0040F04D0464A936843F442
:102AF000E0539360236813F0080F04D0414A9368B1
:102B000043F4604393603F4A936823F0F003A06866
:102B1000034393600D46236813F0010F31D06368BF
:102B2000012B20D0022B25D0364A126812F0020F5A
:102B300064D034498A6822F0030213438B60FEF7A5
:102B4000A7FD06462F4B9B6803F00C036268B3EBAE
:102B5000820F16D0FEF79CFD801B41F2883398420D
:102B6000F0D90320B9E7274A126812F4003FE0D1F8
:102B70000120B2E7234A126812F0007FD9D1012068
:102B8000ABE71F4B1B6803F00F03AB420CD91C4A89
:102B9000136823F00F032B431360136803F00F0334
:102BA000AB4201D0012098E7236813F0040F06D050
:102BB000144A936823F4E053E1680B43936023685D
:102BC00013F0080F07D00F4A936823F4604321697C
:102BD00043EAC1039360FFF715FF0A4B9B68C3F3F9
:102BE0000313094AD35CD840084B1860084B186897
:102BF000FEF712FD002070E70120704701206CE70E
:102C0000003C0240003802403486000800000020EA
:102C100008000020014B1868704700BF000000202A
:102C200008B5FFF7F7FF044B9B68C3F38223034A01
:102C3000D35CD84008BD00BF00380240448600087D
:102C400008B5FFF7E7FF044B9B68C3F34233034A21
:102C5000D35CD84008BD00BF00380240448600085D
:102C6000F0B583B00446036813F0010F0CD0BC4BE1
:102C70009A6822F400029A609A68416B0A439A604B
:102C8000436BC3B1002600E00026236813F4002F35
:102C900015D0B34AD2F88C3023F44013E16B0B43C8
:102CA000C2F88C30E36BB3F5801F06D0002B00F028
:102CB0005381002504E00126E7E70126F6E7002519
:102CC000236813F4801F0FD0A54AD2F88C3023F468
:102CD0004003216C0B43C2F88C30236CB3F5800F9A
:102CE00000F03C8103B90125236813F0807F00D0F8
:102CF000012613F0200F40F03581236813F0100FE8
:102D00000CD0974BD3F88C2022F08072C3F88C2023
:102D1000D3F88C20A16B0A43C3F88C20236813F4EA
:102D2000804F08D08E4AD2F8903023F44033616E41
:102D30000B43C2F89030236813F4004F08D0884A40
:102D4000D2F8903023F44023A16E0B43C2F89030A8
:102D5000236813F4803F08D0814AD2F8903023F4DE
:102D60004013E16E0B43C2F89030236813F4003F28
:102D700008D07B4AD2F8903023F44003216F0B43F4
:102D8000C2F89030236813F0400F08D0744AD2F88C
:102D9000903023F00303616C0B43C2F8903023683A
:102DA00013F0800F08D06E4AD2F8903023F00C0355
:102DB000A16C0B43C2F89030236813F4807F08D0D5
:102DC000674AD2F8903023F03003E16C0B43C2F82D
:102DD0009030236813F4007F08D0614AD2F8903015
:102DE00023F0C003216D0B43C2F89030236813F425
:102DF000806F08D05A4AD2F8903023F44073616D46
:102E00000B43C2F89030236813F4006F08D0544A83
:102E1000D2F8903023F44063A16D0B43C2F8903098
:102E2000236813F4805F08D04D4AD2F8903023F421
:102E30004053E16D0B43C2F89030236813F4005FF8
:102E400008D0474AD2F8903023F44043216E0B4318
:102E5000C2F89030236813F4800F08D0404AD2F8AB
:102E6000903023F08063A16F0B43C2F89030236849
:102E700013F4001F0DD03A4AD2F8903023F00063CB
:102E8000E16F0B43C2F89030E36FB3F1006F00F0D5
:102E9000CF80236813F0080F00D0012513F4802F92
:102EA00008D02F4AD2F8903023F04073616F0B4363
:102EB000C2F89030236813F4000F09D0284AD2F8E2
:102EC000903023F08053D4F880100B43C2F8903038
:102ED000236813F0806F09D0214AD2F8903023F094
:102EE0000053D4F884100B43C2F89030236813F0D9
:102EF000006F09D01A4AD2F88C3023F00073D4F84E
:102F000088100B43C2F88C30236813F0805F09D01F
:102F1000134AD2F88C3023F08063D4F88C100B4322
:102F2000C2F88C3026B9236813F0007F00F00081CE
:102F30000B4A136823F080631360FEF7A9FB064673
:102F4000074B1B6813F0006F74D0FEF7A1FB801BCA
:102F50006428F5D90320EDE00125B1E60126C1E69C
:102F600000380240B84B1A6C42F080521A641B6C55
:102F700003F080530193019BB44A136843F48073B8
:102F80001360FEF785FB0746B04B1B6813F4807F88
:102F900006D1FEF77DFBC01B6428F5D90320C9E0EC
:102FA000A94B1B6F13F4407315D0226B02F44072CF
:102FB0009A4210D0A44B1A6F22F44072196F41F458
:102FC00080311967196F21F4803119671A671B6FF7
:102FD00013F0010F12D1236B03F44072B2F5407F5E
:102FE0001DD0994A936823F4F813936096490B6FA8
:102FF000226BC2F30B0213430B677EE6FEF748FB1E
:103000000746914B1B6F13F0020FE4D1FEF740FB14
:10301000C01B41F288339842F3D903208AE08A48E2
:10302000826822F4F8128A4919400A438260DDE777
:1030300001252EE7236813F0010F13D0636B8BB9C2
:10304000814AD2F88430D2F88410606803F44033A7
:1030500043EA801301F070610B43A16843EA0173F6
:10306000C2F88430236813F4002F03D0E26BB2F56A
:10307000801F06D013F4801F1ED0236CB3F5800F81
:103080001AD1714AD2F88430D2F88410606803F4FF
:10309000403343EA8013E06843EA006301F0E04113
:1030A0000B43C2F88430D2F88C3023F01F03616ADE
:1030B00001390B43C2F88C30236813F0807F11D0A4
:1030C000614AD2F88400D2F88410666823691B0430
:1030D00043EA861300F07060034301F0E0410B43C4
:1030E000C2F88430236813F0007F0DD06268236932
:1030F0001B0443EA8213E26843EA0263A26843EADC
:103100000273514AC2F884304F4A136843F0806317
:103110001360FEF7BDFA06464B4B1B6813F0006FB9
:1031200006D1FEF7B5FA801B6428F5D9032001E02B
:1031300015B9002003B0F0BD434A136823F0805353
:103140001360FEF7A5FA05463F4B1B6813F0005FBE
:1031500006D0FEF79DFA401B6428F5D90320E9E765
:10316000236813F4002F01D0E26B22B113F4801F07
:103170001DD0236CDBB9344AD2F88830D2F88810DD
:10318000606903F4403343EA8013A06943EA0063B3
:1031900001F0E0410B43C2F88830D2F88C3023F4C0
:1031A000F853A16A013943EA0123C2F88C3023683D
:1031B00013F4001F03D0E36FB3F1006F31D0236825
:1031C00013F0080F19D0204AD2F88810D2F88830AE
:1031D000606903F4403343EA801301F070610B43EC
:1031E000E16943EA0173C2F88830D2F88C3023F4E5
:1031F0004033E16A0B43C2F88C30134A136843F042
:1032000080531360FEF744FA04460F4B1B6813F01B
:10321000005F1FD1FEF73CFA001B6428F5D903209C
:1032200088E7094AD2F88800D2F888106569236ACD
:103230001B0443EA851300F07060034301F0E04192
:103240000B43C2F88830BAE70038024000700040F3
:10325000FFFCFF0F00206DE72DE9F04383B004462B
:103260000F4616461D46FEF713FA0A9B181A00EB86
:103270000508FEF70DFA81462A4B1B68C3F3CB33D2
:1032800008FB03F3019323689B6837EA03030CBF31
:1032900001230023B34240D0B5F1FF3FF3D0FEF746
:1032A000F7F9A0EB090040450AD2B8F1000F07D0AA
:1032B000019B0BB94FF00008019B013B0193E2E732
:1032C0002268536823F0E00353606368B3F5827F9C
:1032D0000BD0A36AB3F5005F14D0012384F85D30EE
:1032E000002384F85C30032018E0A368B3F5806FF6
:1032F00018BFB3F5004FECD12268136823F04003E8
:103300001360E6E72268136823F400531360226811
:10331000136843F400531360DFE7002003B0BDE8F7
:10332000F08300BF000000202DE9F04782B0064680
:103330000D4614461F4600238DF80330FEF7A8F90A
:103340000A9B181A00EB0708FEF7A2F98246D6F886
:103350000090314B1B6803EB8303C3EBC3031B0DCE
:1033600008FB03F3019302E0B7F1FF3F11D133688B
:103370009B682B40A3424AD0B5F5C06F08BF002C14
:10338000F2D199F80C30DBB28DF803309DF80330A0
:10339000EAE7FEF77DF9A0EB0A0040450AD2B8F152
:1033A000000F07D0019B0BB94FF00008019B013BB8
:1033B0000193DCE73268536823F0E00353607368DD
:1033C000B3F5827F0BD0B36AB3F5005F14D001234D
:1033D00086F85D30002386F85C30032018E0B3687F
:1033E000B3F5806F18BFB3F5004FECD132681368A6
:1033F00023F040031360E6E73268136823F40053B8
:1034000013603268136843F400531360DFE7002051
:1034100002B0BDE8F08700BF0000002070B584B0A6
:1034200004460D46164600920B4600224FF4C0514A
:10343000FFF77AFF28BB204B1B68204AA2FB03231F
:103440005B0D4FF47A7202FB03F303936368B3F5E9
:10345000827F1CD0039B3BB1039B013B03932368FA
:103460009B6813F0800FF5D100962B4600224FF495
:10347000C0612046FFF758FF0346B8B9184604B0AC
:1034800070BD236E43F0200323660323F6E7009606
:103490002B46002280212046FFF7DEFE0028E3D0E5
:1034A000236E43F0200323660323E7E7236E43F0F4
:1034B000200323660323E1E700000020819F5E16BE
:1034C00070B584B004460D4616464368B3F5827F56
:1034D00020D06368B3F5827F29D0294B1B68294A25
:1034E000A2FB03235B0D4FF47A7202FB03F30393F9
:1034F000039B3BB1039B013B039323689B6813F041
:10350000800FF5D16368B3F5827F1FD00023184682
:1035100004B070BD8368B3F5806F18BFB3F5004F7A
:10352000D7D10268136823F040031360D1E70096F7
:103530002B46002280212046FFF78EFE0028E1D096
:10354000236E43F0200323660323E0E7A368B3F56B
:10355000806F18BFB3F5004F01D00023D7E7009666
:103560002B4600224FF4C0612046FFF7DDFE0346E4
:103570000028CCD0236E43F0200323660323C6E744
:1035800000000020819F5E1600286FD010B5044611
:10359000436A33B94368B3F5827F05D00023C36122
:1035A00002E00023036143610023A36294F85D30CD
:1035B000002B52D0022384F85D302268136823F078
:1035C00040031360E368B3F5E06F4CD90022B3F514
:1035D000706F18BFB3F5E06F01D00023A36263687A
:1035E00003F48273A16801F404410B43216901F0E3
:1035F00002010B43616901F001010B43A16901F470
:1036000000710B43E16901F038010B43216A01F0BD
:1036100080010B43A16A01F4005120680B43036051
:10362000638B03F00403616A01F010010B43616BCB
:1036300001F008010B43E16801F470610B4321685C
:1036400013434B602268D36923F40063D3610020E5
:103650002066012384F85D3010BD84F85C3020467C
:10366000FDF738FBA6E74FF48052B0E70120704722
:103670002DE9F04182B090F85C40012C00F0EA8026
:103680001D46174688460446012380F85C30FDF746
:10369000FFFF064694F85D30DBB2012B09D0022013
:1036A000012384F85D30002384F85C3002B0BDE86B
:1036B000F081B7FA87F35B09B8F1000F08BF012367
:1036C000002B40F0BB80032384F85D300023236689
:1036D000C4F83880A787E7872364A4F84430A4F8A7
:1036E00046302365E364A368B3F5004F1CD023681C
:1036F0001A6812F0400F03D11A6842F040021A60B3
:10370000E368B3F5E06F38D963680BB1012F20D1BE
:10371000A26B23681288DA60A36B0233A363E38F82
:10372000013B9BB2E38714E02268136823F0400357
:1037300013602268136843F480431360D7E7FDF7F2
:10374000A7FF801BA84202D3B5F1FF3F78D1002D1F
:1037500078D0E38F9BB2002B5BD023689A6812F07D
:10376000020FECD0A26B1288DA60A36B0233A36362
:10377000E38F013B9BB2E387EBE763680BB1012F5B
:1037800030D1E38F9BB2012B0BD9A26B2368128837
:10379000DA60A36B0233A363E38F023B9BB2E38740
:1037A00020E0A26B236812781A73A36B0133A36322
:1037B000E38F013B9BB2E38714E0A36B1B78137389
:1037C000A36B0133A363E38F013B9BB2E38709E063
:1037D000FDF75EFF801BA84202D3B5F1FF3F33D156
:1037E000002D33D0E38F9BB29BB12268936813F016
:1037F000020FEDD0E38F9BB2012BDED9A36B1B88A8
:10380000D360A36B0233A363E38F023B9BB2E387D6
:10381000E8E7324629462046FFF700FE08B120239C
:103820002366A36833B901932368DA6801929B6821
:103830000193019B236E5BB9002031E701202FE744
:1038400003202DE703202BE7032029E7032027E7A8
:10385000012025E7022029E72DE9F843DDF8208043
:1038600090F85C40012C00F05D811D4617460E4625
:103870000446012380F85C30FDF70AFF814694F886
:103880005D00C0B26368012814D0B3F5827F09D00F
:103890000223012284F85D20002284F85C2018466F
:1038A000BDE8F883A368002B40F03081042801D0E4
:1038B0000223EEE7B7FA87F35B09002E08BF012366
:1038C000002B40F02581002D00F0248194F85D301C
:1038D000DBB2042B02D0052384F85D30002323667D
:1038E0002764A4F84650A4F84450A663E587A5874A
:1038F000E3642365E368B3F5E06F01D8012D22D9B5
:103900002268536823F48053536023681A6812F0C6
:10391000400F03D11A6842F040021A60E368B3F521
:10392000E06F56D963680BB1012D0AD1A26B2368F1
:103930001288DA60A36B0233A363E38F013B9BB26F
:10394000E387012525E02268536843F480535360E0
:10395000DBE723689A6812F0010F10D0B4F8462014
:1039600092B262B1DA68236C1A80236C023323644A
:10397000B4F84630013B9BB2A4F846300125FDF770
:1039800087FEA0EB0900404503D3B8F1FF3F40F0AC
:10399000C380E38F9BB22BB9B4F846309BB2002BA7
:1039A00000F0A78023689A6812F0020FD1D0E28F4E
:1039B00092B2002ACDD0002DCBD0A26B1288DA6053
:1039C000A36B0233A363E38F013B9BB2E387002524
:1039D000BFE763680BB1012D0ED1E38F9BB2012BC2
:1039E0000CD9A26B23681288DA60A36B0233A3633D
:1039F000E38F023B9BB2E387012547E0A26B23687C
:103A000012781A73A36B0133A363E38F013B9BB25C
:103A1000E387F1E7E28F92B2012A0BD9A26B1288F9
:103A2000DA60A36B0233A363E38F023B9BB2E387AD
:103A300000253CE0A26B12781A73A36B0133A363D9
:103A4000E38F013B9BB2E387002530E02268536897
:103A500043F48053536001250CE0226C1B7B1370F0
:103A6000236C01332364B4F84630013B9BB2A4F8C5
:103A700046300125FDF70CFEA0EB0900404502D3BE
:103A8000B8F1FF3F4AD1B8F1000F49D0E38F9BB2A4
:103A90001BB9B4F846309BB25BB323689A6812F046
:103AA000020F04D0E28F92B20AB1002DB2D1236886
:103AB0009A6812F0010FDDD0B4F8462092B2002AC5
:103AC000D8D0B4F8462092B2012AC6D9DA68236C5D
:103AD0001A80236C02332364B4F84630023B9BB255
:103AE000A4F84630B4F846309BB2012BAED901257C
:103AF000C0E74A4641462046FFF790FC03460028AF
:103B00003FF4C7AE202323660123C2E60223C0E6AA
:103B10000123BEE60123BCE60323BAE60323B8E68D
:103B20000323B6E60223BAE62DE9F04182B004464B
:103B3000884617461D464368B3F5827F19D094F82E
:103B40005C30012B00F0BF80012384F85C30FDF76E
:103B50009FFD064694F85D30DBB2012B15D00220A4
:103B6000012384F85D30002384F85C3002B0BDE8A6
:103B7000F0818368002BE2D1042380F85D3000954A
:103B800013460A46FFF768FEF0E7B7FA87F35B09CA
:103B9000B8F1000F08BF0123002B40F088800423F8
:103BA00084F85D3000232366C4F84080A4F8447094
:103BB000A4F84670A363A387E387E3642365E368FF
:103BC000B3F5E06F16D92268536823F4805353602D
:103BD000A368B3F5004F13D023681A6812F0400FA2
:103BE00003D11A6842F040021A60E368B3F5E06F4F
:103BF0001BD93AE02268536843F480535360E7E7E7
:103C00002268136823F0400313602268136823F4CA
:103C100080431360E0E7FDF73BFD801BA84202D321
:103C2000B5F1FF3F45D1002D45D0B4F846309BB2E9
:103C3000002B30D023689A6812F0010FEBD0226C71
:103C40001B7B1370236C01332364B4F84630013BB3
:103C50009BB2A4F84630E8E7FDF71AFD801BA842A6
:103C600002D3B5F1FF3F28D14DB3B4F846309BB233
:103C70008BB123689A6812F0010FEDD0DA68236CDB
:103C80001A80236C02332364B4F84630013B9BB2A4
:103C9000A4F84630E9E7324629462046FFF710FCF3
:103CA00008B120232366236E5BB9002058E701206A
:103CB00056E7032054E7032052E7032050E7032090
:103CC0004EE701204CE7022050E7000070B4036A81
:103CD00023F001030362036A42688569124C2C4099
:103CE0000D68254323F002048B6823430F4C104ECC
:103CF000B04218BFA0420CBF0124002405D123F01C
:103D00000803CE68334323F004032CB122F440723D
:103D10004C6914438A692243426085614A68426360
:103D2000036270BC704700BF8CFFFEFF00000140C3
:103D30000004014070B4036A23F480730362036AD1
:103D40004268C569144C2C400E68264323F4007366
:103D50008C6843EA0423114C114DA84218BFA042BD
:103D60000CBF0124002406D123F40063CD6843EA8C
:103D7000052323F480633CB122F440524C6942EAAB
:103D800004128C6942EA04124260C6614A68C26346
:103D9000036270BC704700BF8CFFFEFF0000014053
:103DA0000004014070B4036A23F480530362036A81
:103DB0004468C5690D4A2A400D6842EA052223F489
:103DC00000538D6843EA0533094E0A4DA84218BFD7
:103DD000B04204D124F480444D6944EA851444601F
:103DE000C2614A680264036270BC7047FF8CFFFEC8
:103DF000000001400004014070B4036A23F48033E2
:103E00000362036A4268446D0D4D25400C682C43E3
:103E100023F400338D6843EA05430A4E0A4DA84255
:103E200018BFB04204D122F480324D6942EA052223
:103E3000426044654A688265036270BC704700BF97
:103E40008FFFFEFF000001400004014070B4036AD0
:103E500023F480130362036A4468456D0D4A2A40C7
:103E60000D6842EA052223F400138D6843EA0553E6
:103E7000094E0A4DA84218BFB04204D124F4802450
:103E80004D6944EA8524446042654A68C26503621C
:103E900070BC7047FF8FFFFE00000140000401402E
:103EA00010B4036A046A24F001040462846924F0F3
:103EB000F00444EA021223F00A030B438261036216
:103EC0005DF8044B704710B4036A23F010030362DB
:103ED0008469036A24F4704444EA023223F0A003A4
:103EE00043EA0113826103625DF8044B7047836803
:103EF00023F07003194341F007018160704700000F
:103F000090F83D30DBB2012B01D001207047022335
:103F100080F83D3003681A4AB3F1804F18BF9342CE
:103F20001DD0A2F57C42934219D002F580629342E3
:103F300015D002F58062934211D002F57842934287
:103F40000DD002F57052934209D0A2F594329342FB
:103F500005D01A6842F001021A6000207047996883
:103F6000084A0A40062A18BFB2F5803F05D01A68F1
:103F700042F001021A60002070470020704700BF25
:103F8000000001400700010090F83D30DBB2012B3A
:103F900001D001207047022380F83D300268D368C9
:103FA00043F00103D3600368194AB3F1804F18BF8F
:103FB00093421DD0A2F57C42934219D002F5806253
:103FC000934215D002F58062934211D002F57842F7
:103FD00093420DD002F57052934209D0A2F594326B
:103FE000934205D01A6842F001021A60002070471F
:103FF0009968084A0A40062A18BFB2F5803F05D0E2
:104000001A6842F001021A600020704700207047D1
:10401000000001400700010070477047704770477B
:10402000704710B5044603681A6912F0020F11D0E8
:10403000DA6812F0020F0DD06FF002021A6101234C
:10404000037703689B6913F0030F79D0FFF7E6FF4E
:104050000023237723681A6912F0040F12D0DA685C
:1040600012F0040F0ED06FF004021A6102232377BE
:1040700023689B6913F4407F68D02046FFF7CEFF8A
:104080000023237723681A6912F0080F12D0DA6828
:1040900012F0080F0ED06FF008021A610423237784
:1040A0002368DB6913F0030F57D02046FFF7B6FFF4
:1040B0000023237723681A6912F0100F12D0DA68F0
:1040C00012F0100F0ED06FF010021A610823237740
:1040D0002368DB6913F4407F46D02046FFF79EFF3C
:1040E0000023237723681A6912F0010F03D0DA68DE
:1040F00012F0010F3FD123681A6912F0800F03D02C
:10410000DA6812F0800F3DD123681A6912F4807FBB
:1041100003D0DA6812F0800F3BD123681A6912F0DD
:10412000400F03D0DA6812F0400F39D123681A69C2
:1041300012F0200F03D0DA6812F0200F37D110BD33
:10414000FFF76BFF2046FFF76AFF81E72046FFF786
:1041500064FF2046FFF763FF92E72046FFF75DFF0D
:104160002046FFF75CFFA3E72046FFF756FF2046F7
:10417000FFF755FFB4E76FF001021A612046FCF724
:104180008DFCB8E76FF080021A61204600F0FFFC5A
:10419000BAE76FF480721A61204600F0F9FCBCE7C0
:1041A0006FF040021A612046FFF73AFFBEE76FF05A
:1041B00020021A61204600F0E9FCC0E770B40368F1
:1041C0003A4CA04214BF00240124B0F1804F14BF28
:1041D000224644F00102AAB9354DA84214BF002579
:1041E0000125344EB0420DD065B905F1804505F585
:1041F0008235A84214BF0025012506F50066B042AD
:1042000000D01DB123F070034D682B43002A33D139
:10421000274A904214BF00220122264DA8422BD0EB
:1042200052BB02F1804202F58232904214BF00225A
:10423000012205F50065A8421ED0EAB91E4A904247
:1042400014BF0022012205F59A35A84214D09AB96C
:104250001A4A904214BF0022012205F50065A842C7
:104260000AD04AB9164A904214BF00220122A5F58D
:104270009635A84200D01AB123F44073CA6813439C
:1042800023F080034A69134303608A68C2620A68A4
:1042900082620C4B984214BF234644F001030BB1D9
:1042A0000B6903630123436170BC70470000014048
:1042B0000008004000040040004401400018004095
:1042C000002000400004014058B310B5044690F8A7
:1042D0003D300BB3022384F83D30211D2068FFF7E9
:1042E0006DFF012384F8483084F83E3084F83F3075
:1042F00084F8403084F8413084F8423084F8433008
:1043000084F8443084F8453084F8463084F84730E7
:1043100084F83D30002010BD80F83C30FCF748FFA9
:10432000D8E70120704758B310B5044690F83D30E7
:104330000BB3022384F83D30211D2068FFF73EFFB8
:10434000012384F8483084F83E3084F83F3084F804
:10435000403084F8413084F8423084F8433084F8A7
:10436000443084F8453084F8463084F8473084F887
:104370003D30002010BD80F83C30FFF74DFED8E7FF
:104380000120704700284DD0F8B504460D4690F83E
:104390003D30002B41D0022384F83D30214651F8B6
:1043A000042B9068204B034093602068FFF706FFC2
:1043B000206881688369026A2E680E431B4F1F4084
:1043C000AB68A96943EA01231F43194B3B40E968E5
:1043D000EF6941EA072119432F692B6A1B0343EA5E
:1043E00007130B4322F0AA016A686D6942EA0512BD
:1043F0000A43866021688B6123681A62012384F86E
:10440000483084F83E3084F83F3084F8443084F8F3
:10441000453084F83D300020F8BD80F83C30FCF792
:1044200077FFB8E701207047F8BFFEFFFCFCFFFFF5
:104430000303FFFF70B4036A23F010030362036AEF
:1044400042688569144C2C400D6844EA052523F028
:1044500020038C6843EA0413104C114EB04218BF7D
:10446000A0420CBF0124002406D123F08003CE68B3
:1044700043EA061323F040033CB122F440624C6946
:1044800042EA84028C6942EA8402426085614A6899
:104490008263036270BC7047FF8CFFFE0000014026
:1044A0000004014038B590F83C30012B00F09580B5
:1044B0000D460446012380F83C30142A00F28B801C
:1044C000DFE802F00B8989892289898937898989FE
:1044D0004B8989896089898974000068FFF7F6FB38
:1044E0002268936943F0080393612268936923F07B
:1044F000040393612268936929690B439361002047
:10450000002384F83C3038BD0068FFF793FF226831
:10451000936943F4006393612268936923F4806391
:10452000936122689369296943EA0123936100201A
:10453000E6E70068FFF7FEFB2268D36943F0080353
:10454000D3612268D36923F00403D3612268D3695D
:1045500029690B43D3610020D2E70068FFF722FCF2
:104560002268D36943F40063D3612268D36923F4DA
:104570008063D3612268D369296943EA0123D36147
:104580000020BDE70068FFF737FC2268536D43F059
:10459000080353652268536D23F0040353652268B2
:1045A000536D29690B4353650020A9E70068FFF7A5
:1045B0004DFC2268536D43F4006353652268536DCC
:1045C00023F4806353652268536D296943EA01230C
:1045D0005365002094E7012092E7022093E710B48E
:1045E000846824F47F4442EA03230B43234383601B
:1045F0005DF8044B7047000090F83C30012B71D0FF
:1046000010B50446012380F83C30022380F83D3089
:1046100002689068344B034093600B68402B56D07F
:1046200011D9702B3BD01FD8502B45D0602B19D1FE
:10463000CA6849682068FFF746FC60212068FFF7D8
:1046400056FC002024E0102B04D009D9202B01D0E7
:10465000302B07D119462068FFF749FC002017E0EE
:10466000002BF7D0012013E0B3F5805F0FD0B3F536
:10467000005FF7D1CB684A6889682068FFF7AFFF11
:104680002268936843F480439360002000E0002098
:10469000012384F83D30002384F83C3010BDCB6802
:1046A0004A6889682068FFF79AFF2268936843F098
:1046B000770393600020EBE7CA6849682068FFF73A
:1046C000EFFB50212068FFF712FC0020E0E7CA68EA
:1046D00049682068FFF7E4FB40212068FFF707FCEA
:1046E0000020D5E7022070478800FEFF10B401F0DB
:1046F0001F01012303FA01F4036A23EA040303629E
:10470000036A8A40134303625DF8044B704700005C
:104710000A46002945D190F83E30DBB213F1FF3351
:1047200018BF0123002B40F0968010B5002A68D1F5
:10473000022380F83E301146044601220068FFF74C
:10474000D5FF23684649474A934218BF8B4203D19D
:104750005A6C42F400425A642368414AB3F1804FD4
:1047600018BF934269D0A2F57C42934265D002F50E
:104770008062934261D002F5806293425DD002F57F
:104780007842934259D002F57052934255D0A2F527
:104790009432934251D01A6842F001021A6000200C
:1047A00058E004290DD0082913D00C2919D010295C
:1047B0001FD090F84330DBB213F1FF3318BF012351
:1047C000B0E790F83F30DBB213F1FF3318BF01239D
:1047D000A8E790F84030DBB213F1FF3318BF012394
:1047E000A0E790F84130DBB213F1FF3318BF01238B
:1047F00098E790F84230DBB213F1FF3318BF012382
:1048000090E7042A09D0082A0BD00C2A0DD0102AD0
:104810000FD0022380F843308DE7022380F83F3029
:1048200089E7022380F8403085E7022380F8413091
:1048300081E7022380F842307DE799680A4A0A40FE
:10484000062A18BFB2F5803F07D01A6842F001026D
:104850001A60002010BD012070470020FAE700BF59
:1048600000000140000401400700010070B590F80D
:104870003E30DBB290F83F20D5B290F84420D2B25F
:1048800090F845400E46B9B9012A08BF012B47D11F
:10489000022380F83E3080F84430044676B3042E7C
:1048A00038D0012200210068FFF720FF01220421F7
:1048B0002068FFF71BFF26E0E4B2042914D0012D85
:1048C00008BF012B30D114F1FF3418BF0124012A95
:1048D0002CD15CBB022380F83E3080F83F3080F85A
:1048E000443080F84530D8E7012C08BF012D19D19C
:1048F000022380F83F3080F84530CEE701220021C6
:104900000068FFF7F3FE2268136843F001031360A9
:10491000002070BD012204210068FFF7E7FEF2E7E6
:104920000120F6E70120F4E70120F2E70120F0E79B
:1049300010B401F01F01042303FA01F4036A23EA0F
:1049400004030362036A8A40134303625DF8044B65
:10495000704700000A4600293ED190F84430DBB28F
:1049600013F1FF3318BF0123002B6FD110B5002ABC
:104970004ED1022380F844301146044604220068D8
:10498000FFF7D6FF2268536C43F400435364236857
:10499000304AB3F1804F18BF934249D0A2F57C4210
:1049A000934245D002F58062934241D002F5806285
:1049B00093423DD002F57842934239D002F57052CD
:1049C000934235D0A2F59432934231D01A6842F026
:1049D00001021A60002038E0042909D008290FD00C
:1049E00090F84730DBB213F1FF3318BF0123BBE768
:1049F00090F84530DBB213F1FF3318BF0123B3E762
:104A000090F84630DBB213F1FF3318BF0123ABE758
:104A1000042A05D0082A07D0022380F84730ABE7E4
:104A2000022380F84530A7E7022380F84630A3E749
:104A30009968094A0A40062A18BFB2F5803F07D094
:104A40001A6842F001021A60002010BD0120704770
:104A50000020FAE7000001400700010090F83C3018
:104A6000012B45D070B4012380F83C30022380F83C
:104A70003D3003685A689D681E4E1F4CA34218BF04
:104A8000B34203D122F470024C68224322F0700238
:104A90000C6822435A600368164AB3F1804F18BF6E
:104AA000934217D0A2F57C42934213D002F5806264
:104AB00093420FD002F5806293420BD002F5784208
:104AC000934207D002F57052934203D0A2F594327C
:104AD000934204D125F080058A6815439D60012327
:104AE00080F83D30002380F83C30184670BC704799
:104AF00002207047000001400004014090F83C3063
:104B0000012B3CD030B4012380F83C30CB6823F437
:104B100040738A68134323F480634A68134323F481
:104B200000630A68134323F480530A69134323F490
:104B300000534A69134323F480438A6A134323F4DE
:104B400070238A6943EA024302680E4D0E4CA2426A
:104B500018BFAA420CD123F470034C6A43EA0453F1
:104B600023F08073CC69234323F00073096A0B435D
:104B70005364002380F83C30184630BC7047022054
:104B8000704700BF000001400004014070477047BB
:104B90007047026852E8003F23F4907342E8003106
:104BA0000029F6D1026802F1080353E8003F23F020
:104BB0000103083242E800310029F3D1036E012BD2
:104BC00005D02023C367002303664366704702684D
:104BD00052E8003F23F0100342E800310029F6D1EB
:104BE000EFE7704708B5026852E8003F23F0400342
:104BF00042E800310029F6D1202383670023836631
:104C0000FFF7EFFF08BD704708B5806B0023A0F8E1
:104C10005A30A0F85230FFF7F6FF08BD70477047D2
:104C200070B504460168CB6908688D6840F60F02CC
:104C30001A400AD113F0200F07D010F0200F04D033
:104C4000636E0BB12046984770BD002A00F0968035
:104C500015F0010203D1A74E304200F08F8013F00F
:104C6000010F09D010F4807F06D001250D62D4F821
:104C700080102943C4F8801013F0020F09D042B10C
:104C8000216802250D62D4F8801041F00401C4F8B7
:104C9000801013F0040F09D042B1216804250D6281
:104CA000D4F8801041F00201C4F8801013F0080F0E
:104CB0000BD010F0200F00D13AB122680821116208
:104CC000D4F880200A43C4F8802013F4006F0CD07D
:104CD00010F0806F09D022684FF400611162D4F89F
:104CE000802042F02002C4F88020D4F88020002ADE
:104CF000AAD013F0200F06D010F0200F03D0636E5F
:104D00000BB120469847D4F8802023689B6813F0A5
:104D1000400F02D112F0280F29D02046FFF739FFAB
:104D200023689B6813F0400F1DD0226802F108032E
:104D300053E8003F23F04003083242E800310029E5
:104D4000F3D1236F5BB16C4A1A65206FFDF7E6F96A
:104D500000283FF479AF206F036D984774E7204631
:104D6000FFF751FF70E72046FFF74DFF6CE7204645
:104D7000FFF749FF0023C4F8803065E7226E012A5F
:104D800015D013F4801F03D015F4800F40F09F80DE
:104D900013F0800F00F0A28010F0800F00F09E80D2
:104DA000A36E002B3FF450AF204698474CE713F01A
:104DB000100FE6D010F0100FE3D010230B62236821
:104DC0009B6813F0400F4CD0226F13685B689BB256
:104DD000002B3FF439AFB4F8581099427FF634AF46
:104DE000A4F85A30D369B3F5807F30D0226852E8F6
:104DF000003F23F4807342E800310029F6D1226895
:104E000002F1080353E8003F23F00103083242E8AF
:104E100000310029F3D1226802F1080353E8003F72
:104E200023F04003083242E800310029F3D1202367
:104E3000E36700232366226852E8003F23F0100353
:104E400042E800310029F6D1206FFDF71DF9B4F8D2
:104E50005810B4F85A30C91A89B22046FFF7DEFE5E
:104E6000F2E6B4F85810B4F85A30C91A89B2B4F856
:104E70005A309BB2002B3FF4E7AE00293FF4E4AE7A
:104E8000226852E8003F23F4907342E80030002883
:104E9000F6D1226802F1080353E8003F23F0010332
:104EA000083242E800300028F3D12023E3670023D2
:104EB00023666366226852E8003F23F0100342E84D
:104EC00000300028F6D12046FFF7A8FEBCE64FF4DC
:104ED00080130B622046FFF7A2FEB5E613F0400FE9
:104EE0003FF4B2AE10F0400F3FF4AEAE2046FFF7F5
:104EF00079FEA9E620010004094C000810B504461B
:104F000083680269134342691343C269134301680A
:104F10000868984A024013430B602268536823F4E0
:104F20004053E1680B435360A269236A1A43216826
:104F30008B6823F4306313438B6023688E4A93425B
:104F400018D08E4A934228D08D4A93423DD08D4A44
:104F5000934250D08C4A934262D08C4A934277D08D
:104F60008B4A934200F08C808A4A934200F0A080E2
:104F70001023B6E0884BD3F8903003F00303032BE3
:104F800009D8DFE803F00204AD060123A9E00423F9
:104F9000A7E00823A5E01023A3E07F4BD3F89030CF
:104FA00003F00C030C2B0ED8DFE803F0070D0D0DFA
:104FB000090D0D0DA80D0D0D0B00002391E004232C
:104FC0008FE008238DE010238BE0734BD3F89030F3
:104FD00003F03003102B0AD006D9202B00F090806C
:104FE000302B06D108237CE01BB9002379E0042391
:104FF00077E0102375E0684BD3F8903003F0C003DE
:10500000402B09D005D9802B7CD0C02B06D108239A
:1050100067E01BB9002364E0042362E0102360E032
:105020005D4BD3F8903003F44073B3F5807F0BD021
:1050300007D9B3F5007F67D0B3F5407F06D10823C9
:105040004FE01BB900234CE004234AE0102348E062
:10505000514BD3F8903003F44063B3F5806F0BD01D
:1050600007D9B3F5006F51D0B3F5406F06D10823CF
:1050700037E01BB9012334E0042332E0102330E091
:10508000454BD3F8903003F44053B3F5805F0BD019
:1050900007D9B3F5005F3BD0B3F5405F06D10823D5
:1050A0001FE01BB900231CE004231AE0102318E0C2
:1050B000394BD3F8903003F44043B3F5804F0BD015
:1050C00007D9B3F5004F25D0B3F5404F06D10823DB
:1050D00007E01BB9002304E0042302E0102300E0F2
:1050E0000223E269B2F5004F16D0082B7FD8DFE823
:1050F00003F0596F577E727E7E7E75000223F0E7C3
:105100000223EEE70223ECE70223EAE70223E8E7C3
:105110000223E6E70223E4E7082B62D8DFE803F086
:10512000082228612561616105004FF4004003E019
:10513000FDF776FD002856D06268530803EB400067
:10514000B0FBF2F0A0F110024FF6EF739A424CD888
:1051500083B223F00F03C0F3420018432368D860E2
:10516000002031E0FDF76CFDE4E7FDF74BFCE1E7E3
:105170000A48E1E7F369FFEF0010014000440040F6
:1051800000480040004C0040005000400014014026
:1051900000780040007C0040003802400024F40009
:1051A000164802E0FDF73CFD18B3636800EB5300BE
:1051B000B0FBF3F0A0F110024FF6EF739A421AD849
:1051C000236880B2D860002000236366A36610BD08
:1051D000FDF736FDE8E7FDF715FCE5E74FF4004085
:1051E000E3E70120F0E70020EEE70120ECE70120F3
:1051F000EAE70020E8E70120E6E700BF0024F4002A
:10520000436A13F0010F06D00268536823F4003399
:10521000816A0B435360436A13F0020F06D00268A1
:10522000536823F48033C16A0B435360436A13F01D
:10523000040F06D00268536823F48023016B0B43EC
:105240005360436A13F0080F06D00268536823F4D2
:105250000043416B0B435360436A13F0100F06D0B9
:105260000268936823F48053816B0B439360436A15
:1052700013F0200F06D00268936823F40053C16B2B
:105280000B439360436A13F0400F0AD002685368DF
:1052900023F48013016C0B435360036CB3F5801F40
:1052A0000BD0436A13F0800F06D00268536823F4D2
:1052B0000023816C0B43536070470268536823F4EA
:1052C000C003416C0B435360EBE72DE9F04104460A
:1052D0000F4616469846069D2368DB6937EA0303A6
:1052E0000CBF01230023B34251D1B5F1FF3FF3D0EE
:1052F000FCF7CEF9A0EB0800A8422BD855B32368E1
:105300001A6812F0040FE7D0DA6912F4006FE3D0E4
:105310004FF400621A62226852E8003F23F4D0730F
:1053200042E800310029F6D1226802F1080353E86F
:10533000003F23F00103083242E800310029F3D195
:105340002023A367E367C4F88030002384F8743017
:1053500003201DE0226852E8003F23F4D07342E8A6
:1053600000310029F6D1226802F1080353E8003F1A
:1053700023F00103083242E800310029F3D1202351
:10538000A367E367002384F87430032000E0002063
:10539000BDE8F08130B583B004460023C0F880300A
:1053A000FCF776F9054623681B6813F0080F0DD14A
:1053B00023681B6813F0040F16D12023A367E3674B
:1053C0000020206684F8740003B030BD6FF07E4387
:1053D0000093034600224FF400112046FFF775FFAB
:1053E0000028E5D00320EFE76FF07E4300932B46C3
:1053F00000224FF480012046FFF767FF0028DCD031
:105400000320E1E768B310B50446836F03B3242398
:10541000A3672268136823F0010313602046FFF797
:105420006DFD012813D0636ABBB92268536823F469
:10543000904353602268936823F02A0393602268A4
:10544000136843F0010313602046FFF7A3FF10BD6C
:1054500080F87430FCF766F8D9E72046FFF7D0FEF5
:10546000E3E701207047000030B583B00546164CD5
:10547000E368984763699847636AB3B9124C236A33
:10548000C5F307409847236AC5F307209847236A66
:10549000E8B298470C4CE36998470546A3699847DA
:1054A00023699847284603B030BDA36A002BE5D096
:1054B0002A0C8DF804202A0A8DF805208DF8065054
:1054C000032101A89847E5E71000002070B582B0DD
:1054D00004460E46164DEB6898476B69984744F0B2
:1054E0000404AB6AA3B1220C8DF80420220A8DF8C3
:1054F00005208DF806408DF8076004210DEB0100B2
:1055000098470B4CA36998472369984702B070BD30
:105510002B6AC4F3074098472B6AC4F307209847C7
:105520002B6AE0B298472B6A30469847E9E700BFFC
:1055300010000020F0B583B004460E4615461C4FFF
:10554000FB6898477B6998477B6A6BB9184F3B6A41
:10555000C4F3074098473B6AC4F3072098473B6A67
:10556000E0B29847002419E0BB6A002BEED0220C71
:105570008DF80420220A8DF805208DF806400321BD
:1055800001A898470A4B5B6A29463046984707E0CE
:10559000074BDB69984730550134A4B2AC42F7D3CE
:1055A000034CA36998472369984703B0F0BD00BF37
:1055B00010000020F0B583B004460F4616461B4D80
:1055C000EB6898476B69984744F00404AB6AB3B141
:1055D000220C8DF80420220A8DF805208DF8064053
:1055E000032101A89847114B9B6A314638469847DA
:1055F0000E4CA36998472369984703B0F0BD2B6A06
:10560000C4F3074098472B6AC4F3072098472B6AD6
:10561000E0B29847002405E0044B1B6A385D9847C8
:105620000134A4B2B442F7D3E2E700BF1000002077
:105630002DE9F0410746002501E0A54224D04FEABC
:10564000870808F101084FEAC80808F500563046F7
:10565000FFF70AFF84B22402A4B208F504584046BA
:10566000FFF702FF14FA80F4A4B2002CE5D0304614
:10567000FFF7FAFE85B22D02ADB24046FFF7F4FE09
:1056800015FA80F5ADB2D8E72846BDE8F0812DE9DE
:10569000F0410746002501E0A54224D04FEA8708E3
:1056A00008F101084FEAC80808F518563046FFF718
:1056B000DBFE84B22402A4B208F51C584046FFF772
:1056C000D3FE14FA80F4A4B2002CE5D03046FFF7E4
:1056D000CBFE85B22D02ADB24046FFF7C5FE15FAEE
:1056E00080F5ADB2D8E72846BDE8F08102B9704731
:1056F0002DE9F84315460F46840004F101094FEAED
:10570000C90909F510584046FFF7AEFE86B23602C9
:10571000B6B209F514594846FFF7A6FE16FA80F608
:10572000B6B2A01CC0002A46394600EB0620FFF79F
:1057300041FF3544ADB2290A4046FFF7C7FEE9B242
:105740004846FFF7C3FEBDE8F88302B970472DE96C
:10575000F84315460F46840004F101094FEAC909D0
:1057600009F520584046FFF77FFE86B23602B6B2F2
:1057700009F524594846FFF777FE16FA80F6B6B2C7
:10578000E01CC0002A46394600EB0620FFF7D2FE97
:105790003544ADB2290A4046FFF798FEE9B24846C3
:1057A000FFF794FEBDE8F88308282DD870B50546AC
:1057B00084000134E40004F5807610213046FFF7C0
:1057C00085FE3046FFF750FE0028FAD11F2104F570
:1057D0000070FFF77BFE0123AB40DB431BB20C4A9A
:1057E00011881940118051880B40538002EB45010C
:1057F00000238B802A44137504F54070FFF734FEB4
:105800000028F9D1012070BD4FF0FF30704700BF74
:105810006C010020082800F292802DE9F04182B04E
:1058200005460F4690461E46012961D0002900F02A
:105830008980042900F2868016F0040F40F08580EC
:105840001EB1012F61D0022F65D02846FFF7ACFFB3
:10585000AC000134E40026F00F0149B23943C9B26B
:105860002046FFF733FEB8F1000F0AD13A4AB2F8EA
:10587000008008F101039BB213804FF6F07293424F
:1058800058D04FEA182104F58060FFF71FFE5FFA39
:1058900088F104F5A060FFF719FE04F58077012177
:1058A0003846FFF713FE3846FFF7DEFD0028FAD131
:1058B0000122AA40D24312B2284B1988114009B2E2
:1058C00006F00106AE400E431E8059880A405A80F9
:1058D00003EB450100228A802B441A7504F54070C1
:1058E000FFF7C2FD0028F9D068B202B0BDE8F08130
:1058F00004220DEB02014FF47060FFF71BFE019BC9
:10590000002B99D16FF00200EFE716F0210F9CD128
:105910006FF00500E9E716F0200F02D016F0800FB7
:1059200016D016F0100F90D016F0800F8DD16FF0BA
:105930000500DAE7084B4FF440421A80A1E74FF028
:10594000FF3070476FF00400CFE76FF00500CCE741
:105950006FF00500C9E700BF0C0000206C010020BB
:1059600008282AD870B5054684000134E400204692
:10597000FFF77AFD00F00F00012821D104F54076F1
:105980003046FFF771FD13281DD104F58074022104
:105990002046FFF79BFD2046FFF766FD0028FAD161
:1059A0003046FFF761FD142801D1012070BD284663
:1059B000FFF7FAFE6FF00300F8E74FF0FF30704793
:1059C0006FF00400F2E76FF00200EFE7082837D825
:1059D00070B5064684000134E4002046FFF744FD1C
:1059E00000F00F0001282ED104F58075082128460B
:1059F000FFF76CFD2846FFF737FD0028FAD101229A
:105A000002FA06F1124B5A8822EA01025A801B88D8
:105A1000334113F0010F19D104F54070FFF724FD55
:105A200060B104F50070FFF71FFD10F0080FF3D010
:105A30003046FFF7B9FE6FF00C0008E0012006E0E9
:105A40004FF0FF3070476FF0040000E0002070BDA1
:105A50006C010020082800F283802DE9F0471646EB
:105A60008A460546814687000137FF003846FFF722
:105A7000FBFC00F00F00012875D1002E76D007F551
:105A800040784046FFF7F0FC172818BF1C2870D15B
:105A9000394B5B882B4113F0010F19D007F50074C7
:105AA0002046FFF7E1FC10F0100F05D110F0080FB1
:105AB00019D10020BDE8F08710212046FFF706FD30
:105AC000012303FA05F22C494B8823EA02034B8099
:105AD00007F5F850FFF7C8FC84B2A402A4B2A642AE
